:100000000C945D000C9485000C9485000C94850084
:100010000C9485000C9485000C9485000C9485004C
:100020000C9485000C9485000C9485000C9485003C
:100030000C9485000C9485000C9485000C9485002C
:100040000C9400060C9485000C94CE050C94A80525
:100050000C9485000C9485000C9485000C9485000C
:100060000C944A060C948500000000002400270030
:100070002A0000000000250028002B0004040404CE
:100080000404040402020202020203030303030342
:10009000010204081020408001020408102001021F
:1000A00004081020000000080002010000030407FB
:1000B0000000000000000000690711241FBECFEF00
:1000C000D8E0DEBFCDBF11E0A0E0B1E0E4EAF1E1AD
:1000D00002C005900D92A638B107D9F722E0A6E834
:1000E000B1E001C01D92A23FB207E1F710E0CDE5FB
:1000F000D0E004C02197FE010E94CA08CC35D10788
:10010000C9F70E94A2070C94D0080C94000008952F
:100110000895AF92BF92CF92DF92EF92FF920F932A
:100120001F93CF93DF936C017B018B01040F151F8D
:10013000EB015E01AE18BF08C017D10759F06991F5
:10014000D601ED91FC910190F081E02DC601099559
:10015000892B79F7C501DF91CF911F910F91FF9006
:10016000EF90DF90CF90BF90AF900895FC01538D3A
:10017000448D252F30E0842F90E0821B930B541781
:1001800010F0CF96089501970895FC01918D828D0E
:10019000981761F0A28DAE0FBF2FB11D5D968C91A7
:1001A000928D9F5F9F73928F90E008958FEF9FEFE6
:1001B0000895FC01918D828D981731F0828DE80FA2
:1001C000F11D858D90E008958FEF9FEF0895FC015C
:1001D000918D228D892F90E0805C9F4F821B910929
:1001E0008F739927089589E492E00E94E70021E047
:1001F000892B09F420E0822F089580E090E0892B7C
:1002000029F00E94F30081110C9400000895FC0174
:10021000A48DA80FB92FB11DA35ABF4F2C91848D67
:1002200090E001968F739927848FA689B7892C93C4
:10023000A089B1898C91837080648C93938D848D17
:10024000981306C00288F389E02D80818F7D80831A
:100250000895EF92FF920F931F93CF93DF93EC01DA
:1002600081E0888F9B8D8C8D98131AC0E889F9895D
:10027000808185FF15C09FB7F894EE89FF89608360
:10028000E889F98980818370806480839FBF81E0E1
:1002900090E0DF91CF911F910F91FF90EF90089523
:1002A000F62E0B8D10E00F5F1F4F0F731127E02EFE
:1002B0008C8D8E110CC00FB607FCFACFE889F98936
:1002C000808185FFF5CFCE010E940701F1CFEB8D34
:1002D000EC0FFD2FF11DE35AFF4FF0829FB7F8940A
:1002E0000B8FEA89FB8980818062CFCFCF93DF9328
:1002F000EC01888D8823B9F0AA89BB89E889F9893E
:100300008C9185FD03C0808186FD0DC00FB607FC72
:10031000F7CF8C9185FFF2CF808185FFEDCFCE01A5
:100320000E940701E9CFDF91CF91089590E0FC0191
:10033000EC55FF4F2491FC01E057FF4F3491FC0135
:10034000E458FF4FE491EE23C9F0222339F0233023
:1003500001F1A8F4213019F1223029F1F0E0EE0F7B
:10036000FF1FEE58FF4FA591B4918FB7F894EC9111
:10037000611126C030953E233C938FBF08952730EE
:10038000A9F02830C9F0243049F7809180008F7D92
:1003900003C0809180008F7780938000DFCF84B589
:1003A0008F7784BDDBCF84B58F7DFBCF8091B0008C
:1003B0008F778093B000D2CF8091B0008F7DF9CF3E
:1003C0003E2BDACFCF93DF9390E0FC01E057FF4F55
:1003D000249184589F4FFC0184918823C9F090E0B8
:1003E000880F991FFC01E859FF4FA591B491FC01BA
:1003F000EE58FF4FC591D49161110DC09FB7F8948D
:100400008C91209582238C938881282328839FBFF9
:10041000DF91CF910895623051F49FB7F8943C91E9
:10042000822F809583238C93E8812E2BEFCF8FB77B
:10043000F894EC912E2B2C938FBFEACF3FB7F89412
:100440008091EF019091F001A091F101B091F20142
:1004500026B5A89B05C02F3F19F00196A11DB11D1F
:100460003FBFBA2FA92F982F8827BC01CD01620F5B
:10047000711D811D911D42E0660F771F881F991F16
:100480004A95D1F708952091C701260F3327331FCE
:1004900021323105ECF420911F02FC0190E080E054
:1004A000243069F082E00895A091C7012191AC0148
:1004B00049555E4FA40FB52FB11D2C930196861799
:1004C00098F38091C701680F6093C70180E0089599
:1004D00081E0089510921F0281E080931E02109225
:1004E000F90161E082E10E94960161E083E10E94EE
:1004F0009601E9EBF0E080818E7F808380818D7FA3
:10050000808388E48093B80085E48093BC000895DC
:10051000CF93DF9391E09093A6018823B9F0C09127
:10052000B800D091BA008091BC008A7B8093BC0057
:1005300060E082E10E94960160E083E10E94960102
:100540000E946A02D093BA00C093B800DF91CF91A5
:1005500008958F929F92AF92BF92CF92DF92EF92C7
:10056000FF920F931F93CF93DF93D0914802D13224
:1005700008F0D7C0182FC09147020E941E026B01DD
:100580007C0180911F0281116BC082E080931F0269
:1005900010931E028FEF80931D0210921C02D093C5
:1005A0001B02A7E2B2E0EBEFF1E080E0D81391C0CC
:1005B0001092FA018091FA01CC0FC82BC093FA0176
:1005C0008091F901813009F088C01092F9010E94F0
:1005D0001E026B017C018091FA018093BB00809127
:1005E000210290912202A0912302B0912402892B32
:1005F0008A2B8B2BA1F00E941E02009121021091E8
:10060000220220912302309124026C197D098E0967
:100610009F09061717072807390708F442C0809179
:10062000BC0083FDD8CF85EC8093BC000E941E02E5
:100630006B017C0180911F02823009F450C08091CF
:100640001D028F3F09F46FC080911D02803209F4B2
:100650006CC080911D02803309F469C084E026C01B
:100660008091210290912202A0912302B091240254
:10067000892B8A2B8B2B09F484CF0E941E02809039
:10068000210290902202A0902302B09024026C19C3
:100690007D098E099F0986169706A806B90608F0F7
:1006A00070CF809120020E94880285E0109226027D
:1006B0001092480210922502DF91CF911F910F9165
:1006C000FF90EF90DF90CF90BF90AF909F908F9072
:1006D00008959D9191938F5F69CF85EEA5CF80910D
:1006E000210290912202A0912302B0912402892B31
:1006F0008A2B8B2B09F49ECF0E941E0200912102AF
:100700001091220220912302309124026C197D095C
:100710008E099F09061717072807390708F08ACF9F
:10072000C0CF81E0C3CF80E0C1CF82E0BFCF83E004
:10073000BDCF0895E091F8018091F701E81730F4FA
:10074000F0E0EA57FE4F808190E008958FEF9FEF31
:1007500008959091F8018091F7012FEF3FEF9817DE
:1007600048F4E92FF0E0EA57FE4F208130E09F5F28
:100770009093F801C90108958091F7019091F801D3
:10078000891B990B0895CF92DF92EF92FF920F93FE
:100790001F93CF93DF937C01CB018A012091250227
:1007A000222389F0EB016B01C40ED51ECC15DD05AB
:1007B00069F06991D701ED91FC910190F081E02DF4
:1007C000C7010995F3CF642F0E944302C801DF914E
:1007D000CF911F910F91FF90EF90DF90CF900895F0
:1007E000CF93DF931F92CDB7DEB7698320912502A7
:1007F0002223F9F020914802203258F021E030E025
:10080000FC013383228390E080E00F90DF91CF9151
:10081000089580912602E82FF0E0E95DFD4F99816F
:1008200090838F5F809326028093480281E090E05E
:10083000ECCF61E0CE0101960E944302F7CF90E039
:1008400080E00895FC0101900020E9F73197AF01A5
:10085000481B590BBC0189E492E00C9489008F92EB
:100860009F92AF92BF920F931F93CF93DF93CDB719
:10087000DEB7A1970FB6F894DEBF0FBECDBF19A2A9
:10088000423008F44AE08E010F5D1F4F842E912CF8
:10089000B12CA12CA50194010E94A808E62FB90152
:1008A000CA01EA30F4F4E05DD801EE938D01232B08
:1008B000242B252B79F790E080E0109719F0CD01DB
:1008C0000E942204A1960FB6F894DEBF0FBECDBFE2
:1008D000DF91CF911F910F91BF90AF909F908F901C
:1008E0000895E95CE1CFCF93DF93682F70E090E04B
:1008F00080E040E10E942F04EC0184E291E00E943C
:1009000022048C0F9D1FDF91CF910895CF92DF922B
:10091000EF92FF920F931F9391E0909325029BE635
:10092000909347021092260210924802682F86EE9A
:1009300092E00E94F00380E00E94A9020E941E0241
:100940006B017C0180911F02811163C081E0809363
:100950001F0280931E029FEF90931D0210921C02B3
:1009600010921B028093FA018091FA01866D8093A8
:10097000FA018091F901813009F082C01092F901E9
:100980000E941E026B017C018091FA018093BB00E2
:100990008091210290912202A0912302B091240221
:1009A000892B8A2B8B2BA1F00E941E020091210221
:1009B0001091220220912302309124026C197D09AA
:1009C0008E099F09061717072807390708F442C040
:1009D0008091BC0083FDD8CF85EC8093BC000E9441
:1009E0001E026B017C0180911F02813009F44AC014
:1009F00080911C02811168C080911C02ABEFB1E0B4
:100A0000E6E8F1E090E0981751F12D9121939F5F76
:100A1000FACF8091210290912202A0912302B091FD
:100A20002402892B8A2B8B2B09F48CCF0E941E0267
:100A30000091210210912202209123023091240280
:100A40006C197D098E099F090617170728073907B2
:100A500008F078CF809120020E94880280E01092F6
:100A6000F8018093F701882389F186EE92E00E94D5
:100A7000A9031F910F91FF90EF90DF90CF90089501
:100A800085EEABCF8091210290912202A0912302AA
:100A9000B0912402892B8A2B8B2B09F4A4CF0E94BE
:100AA0001E02009121021091220220912302309116
:100AB00024026C197D098E099F090617170728075C
:100AC000390708F090CFC6CF81E098CF87E291E058
:100AD0000E94220484E291E00E9422048FEFC9CF99
:100AE00085ED8093BC008091210290912202A0911B
:100AF0002302B09124020796A11DB11D23E0B695F3
:100B0000A795979587952A95D1F72091BC0024FD4C
:100B100003C010921F0208954091210250912202B9
:100B20006091230270912402452B462B472B69F3D9
:100B30000097A105B10541F02AE22A95F1F700C01E
:100B40000197A109B109E1CF809120020C9488029C
:100B50001F920F920FB60F9211242F933F934F9332
:100B60005F936F937F938F939F93AF93BF93EF9315
:100B7000FF9389E492E00E940701FF91EF91BF91FA
:100B8000AF919F918F917F916F915F914F913F9125
:100B90002F910F900FBE0F901F9018951F920F92DC
:100BA0000FB60F9211242F938F939F93EF93FF9380
:100BB000E0915902F0915A028081E0915F02F09138
:100BC000600282FD1BC09081809162028F5F8F73F3
:100BD00020916302821741F0E0916202F0E0E75B4E
:100BE000FD4F958F80936202FF91EF919F918F91BE
:100BF0002F910F900FBE0F901F9018958081F4CF0A
:100C00001F920F920FB60F9211242F933F938F9341
:100C10009F93AF93BF938091EB019091EC01A091D2
:100C2000ED01B091EE013091EA0123E0230F2D3761
:100C300058F50196A11DB11D2093EA018093EB01A7
:100C40009093EC01A093ED01B093EE018091EF0140
:100C50009091F001A091F101B091F2010196A11DD6
:100C6000B11D8093EF019093F001A093F101B09337
:100C7000F201BF91AF919F918F913F912F910F9072
:100C80000FBE0F901F90189526E8230F0296A11D06
:100C9000B11DD2CF1F920F920FB60F9211242F9336
:100CA0003F934F935F936F937F938F939F93AF93F4
:100CB000BF93EF93FF938091B900887F803609F44A
:100CC0004AC0F0F5883209F4A7C018F5803109F45C
:100CD0009BC0B8F4882309F4F9C0883009F494C0A3
:100CE000FF91EF91BF91AF919F918F917F916F9104
:100CF0005F914F913F912F910F900FBE0F901F90DA
:100D00001895883109F488C0803251F780931D020C
:100D100014C0803409F49DC040F48033B9F38833A3
:100D2000F9F680931D0285ECB0C0803509F485C0CA
:100D3000883509F496C0883499F60E947005D0CFA2
:100D4000883909F48CC038F5883729F050F4883692
:100D500011F0803729F683E080931F021092E90199
:100D600057C0883809F47BC0803919F0803809F001
:100D7000B7CF8091E901803208F071C0E091E901BC
:100D800081E08E0F8093E9018091BB00F0E0E75392
:100D9000FE4F80833DC0803B39F0E0F4803A09F497
:100DA00079C0883A09F09CCF84E080931F021092AA
:100DB000C8011092C701E091F501F091F601099583
:100DC0008091C70181110FC081E08093C70110920B
:100DD000A70109C0803C09F4A6CF883C09F4A3CF41
:100DE000883B09F07DCFE091C80181E08E0F8093B0
:100DF000C801F0E0E955FE4F80818093BB009091DF
:100E0000C8018091C70129C08091FA018093BB007D
:100E100085EC8093BC0064CF90911C0280911B02F2
:100E2000981758F5E0911C0281E08E0F80931C0208
:100E3000F0E0E550FE4F8081E9CFE0911C0281E0B7
:100E40008E0F80931C028091BB00F0E0E550FE4FB6
:100E5000808390911C0280911B029817C8F285E84C
:100E6000D8CFE0911C0281E08E0F80931C0280910C
:100E7000BB00F0E0E550FE4F808380911E0281119F
:100E80005CCF81E08093F90184EA8093BC001092EA
:100E90001F0226CF85EC8093BC0010921F02809128
:100EA000E901803230F4E091E901F0E0E753FE4FD0
:100EB00010826091E90170E0E091F301F091F4019A
:100EC00089EC91E009951092E9010ACF10921D0278
:100ED00034CFE9E4F2E01382128288EE93E0A0E0DE
:100EE000B0E084839583A683B78324E031E0318327
:100EF000208325EC30E03587248724EC30E03787E9
:100F0000268720EC30E0318B208B21EC30E0338BD6
:100F1000228B22EC30E0358B248B26EC30E0378BB3
:100F2000268B118E128E138E148EE6EEF2E0138253
:100F3000128284839583A683B78386E191E09183AF
:100F400080830895789484B5826084BD84B581607F
:100F500084BD85B5826085BD85B5816085BD809184
:100F60006E00816080936E001092810080918100FC
:100F700082608093810080918100816080938100F4
:100F8000809180008160809380008091B1008460B6
:100F90008093B1008091B00081608093B000809117
:100FA0007A00846080937A0080917A0082608093D6
:100FB0007A0080917A00816080937A0080917A0033
:100FC000806880937A001092C10060E080E00E9407
:100FD000E20161E081E00E94E201E0915902F091BA
:100FE0005A0282E08083E0915502F091560210820D
:100FF000E0915702F09158028FEC808310926102C9
:10100000E0915D02F0915E0286E08083E0915B02F8
:10101000F0915C02808180618083E0915B02F091BD
:101020005C02808188608083E0915B02F0915C02C9
:10103000808180688083E0915B02F0915C02808116
:101040008F7D80830E941E024B015C0184E6C82EC6
:10105000D12CE12CF12C0E941E02681979098A0911
:101060009B09683E734081059105A8F321E0C21AEF
:10107000D108E108F10888EE880E83E0981EA11CD3
:10108000B11CC114D104E104F10429F71092F80154
:101090001092F70110922602109248020E946A02F2
:1010A00087E890E09093F6018093F50188E890E05E
:1010B0009093F4018093F30162E082E10E94E201E7
:1010C00062E083E10E94E20181E08093250280E7F3
:1010D0008093470261E086EE92E00E94F00381E097
:1010E0000E94A9024AE060E070E0CB010E942F0458
:1010F00083E10E948604F82E84E10E948604D82FA2
:1011000085E10E948604C82F87E491E00E942204B2
:1011100082E591E00E9422048F2D0E94730483E6F1
:1011200091E00E9422048D2F0E94730484E791E0D5
:101130000E9422048C2F0E947304C0E0D0E020970C
:10114000F1F30E94F3008823D1F30E940000F7CF4F
:10115000A1E21A2EAA1BBB1BFD010DC0AA1FBB1FBB
:10116000EE1FFF1FA217B307E407F50720F0A21B2D
:10117000B30BE40BF50B661F771F881F991F1A949A
:1011800069F760957095809590959B01AC01BD01C4
:10119000CF010895EE0FFF1F0590F491E02D099403
:0411A000F894FFCFF1
:1011A4000000000029018900B6007601E700C500AF
:1011B400D90000000000F003C3031F049903BC031B
:1011C400A9039A030D0A004572726F723A204661B0
:1011D400696C656420746F20726561642072656750
:1011E40069737465722E00526567697374657273EE
:1011F4003A00094348475F44455441494C535F30E2
:10120400303A00094348475F44455441494C535FD1
:1012140030313A00094348475F44455441494C53EF
:061224005F30323A0000C9
:107800000C94343C0C94513C0C94513C0C94513CE1
:107810000C94513C0C94513C0C94513C0C94513CB4
:107820000C94513C0C94513C0C94513C0C94513CA4
:107830000C94513C0C94513C0C94513C0C94513C94
:107840000C94513C0C94513C0C94513C0C94513C84
:107850000C94513C0C94513C0C94513C0C94513C74
:107860000C94513C0C94513C11241FBECFEFD8E036
:10787000DEBFCDBF11E0A0E0B1E0E6ECFDE702C065
:1078800005900D92A230B107D9F722E0A2E0B1E055
:1078900001C01D92AD30B207E1F70E940A3D0C9481
:1078A000E13E0C94003C9091C00095FFFCCF80938A
:1078B000C6000895CF93982F8595859585958595D4
:1078C000805D9F709A3014F0C7E501C0C0E3C90F16
:1078D0000E94533C8C2FCF910C94533CCF92DF925B
:1078E000EF92FF92C12CD12C76018091C00087FDD0
:1078F00013C08FEFC81AD80AE80AF80A81E4C8163C
:1079000082E4D8068FE0E806F10478F3E091020102
:10791000F09103010995E9CF8091C600FF90EF90A7
:10792000DF90CF900895CF930E946E3CC82F0E94A5
:10793000533CC13614F089EA03C0C0331CF080ED1B
:107940008C0F01C08C2FCF910895CF930E94933C50
:10795000C82F0E94933C90E1C99F800D1124CF91C4
:107960000895CF93C82FCC2321F00E946E3CC150C4
:10797000FACFCF910895CF93C82F0E946E3C8032EA
:1079800051F484E10E94533C8C2F0E94533C80E1CF
:10799000CF910C94533C809104018F5F809304013C
:1079A000853031F4E0910201F0910301CF91099407
:1079B000CF9108950E946E3C803231F484E10E94A0
:1079C000533C80E10C94533C809104018F5F809381
:1079D0000401853029F4E0910201F091030109943A
:1079E00008958823B1F02D9A2FEF31EE94E02150C5
:1079F00030409040E1F700C000002D982FEF31EEAD
:107A000094E0215030409040E1F700C000008150E8
:107A1000E8CF08950000E0E0F0E0E49180E1809399
:107A2000C4001092C50088E18093C10086E0809375
:107A3000C2005098589A259A81E00E94F13CFF2498
:107A4000F3940E946E3C803309F442C08133E1F428
:107A50000E946E3C803209F0A6C184E10E94533C32
:107A600081E40E94533C86E50E94533C82E50E94DB
:107A7000533C80E20E94533C89E40E94533C83E5DE
:107A80000E94533C80E586C1803439F40E946E3CEC
:107A90008638F0F00E946E3C1BC08134A1F40E9435
:107AA0006E3C803811F482E003C0813821F481E01B
:107AB0000E94BB3CC6CF823811F480E1F9CF8839EF
:107AC000C9F583E0F5CF823431F484E10E94B13C02
:107AD0000E94DA3CB6CF853411F485E0F7CF982FB9
:107AE0009D7F9035A9F3813599F3853549F40E943E
:107AF0006E3C809306010E946E3C80930701E8CFA4
:107B00008635D1F40E946E3C803389F40E946E3C2D
:107B10000E946E3C182F0E946E3C111102C08EE133
:107B2000C7CF113011F485E9C3CF8FE0C1CF83E017
:107B30000E94B13C80E0BCCF843609F0C6C00E94F0
:107B40006E3C809309020E946E3C809308028091F3
:107B50000C028E7F80930C020E946E3C853429F4C7
:107B600080910C02816080930C0208E011E020916A
:107B7000080230910902C80188509140821793078A
:107B800030F40E946E3CF80181938F01F0CF0E9487
:107B90006E3C803209F007C180910C0220910601F1
:107BA0003091070180FF29C0220F331F3093070156
:107BB00020930601E8E0F1E02091080230910902EB
:107BC000CF01885091408217930708F07CC0F99943
:107BD000FECF809106019091070192BD81BD8191F8
:107BE00080BDFA9AF99A8091060190910701019659
:107BF0009093070180930601DFCF80910701880FE2
:107C0000880B8F2180930B02220F331F30930701C3
:107C1000209306018091080280FF09C0809108022C
:107C20009091090201969093090280930802F894BA
:107C3000F999FECF1127E0910601F0910701C8E004
:107C4000D1E08091080290910902103091F40091E6
:107C5000570001700130D9F303E000935700E89515
:107C60000091570001700130D9F301E100935700F2
:107C7000E895099019900091570001700130D9F3EF
:107C800001E000935700E8951395103498F0112700
:107C90000091570001700130D9F305E000935700BF
:107CA000E8950091570001700130D9F301E100938C
:107CB0005700E8953296029709F0C7CF103011F0BF
:107CC0000296E5CF112484E165C0843709F052C0E3
:107CD0000E946E3C809309020E946E3C80930802D1
:107CE0008091060190910701880F991F90930701D9
:107CF000809306010E946E3C90910C02853411F431
:107D0000916001C09E7F90930C020E946E3C803275
:107D100009F097CE84E10E94533C00E010E080918E
:107D200008029091090208171907B0F580910C021A
:107D300080FF0BC0F999FECF809106019091070159
:107D400092BD81BDF89A80B507C081FD07C0E09162
:107D50000601F091070184910E94533C8091060135
:107D600090910701019690930701809306010F5FA0
:107D70001F4FD5CF8537A1F40E946E3C803299F415
:107D800084E10E94533C8EE10E94533C85E90E94AD
:107D9000533C8FE00E94533C80E10E94533C51CE03
:107DA000863709F4C7CE809104018F5F8093040168
:107DB000853009F046CEE0910201F091030109956A
:067DC00040CEF894FFCF55
:027DC60080003B
:040000030000780081
:00000001FF
