:020000040000FA
:100000000C9462000C948A000C948A000C948A0070
:100010000C948A000C948A000C948A000C948A0038
:100020000C948A000C948A000C948A000C948A0028
:100030000C948A000C948A000C948A000C948A0018
:100040000C941F030C948A000C94ED020C94C702CC
:100050000C948A000C948A000C948A000C948A00F8
:100060000C9466030C948A00000000002400270012
:100070002A0000000000250028002B0004040404CE
:100080000404040402020202020203030303030342
:10009000020203010204081020408001020408103B
:1000A00020010204081020408040000000090003E5
:1000B000020000040508000000000000000000002D
:1000C00000007B0411241FBECFEFD8E0DEBFCDBF00
:1000D00011E0A0E0B1E0EEE2FAE002C005900D927E
:1000E000A231B107D9F722E0A2E1B1E001C01D922F
:1000F000A630B207E1F710E0C2E6D0E004C02197D5
:10010000FE010E940F05C136D107C9F70E94A8045D
:100110000C9415050C940000EAEAF0E02491E3E960
:10012000F0E09491ECE7F0E0E491EE23C9F02223B3
:1001300039F0243001F1A8F4223069F1233079F14B
:10014000F0E0EE0FFF1FEE58FF4FA591B4912FB7CF
:10015000F894EC91811126C090959E239C932FBF1B
:100160000895283071F0293091F0253049F7209119
:1001700080002F7D03C0209180002F772093800086
:10018000DFCF2091B0002F772093B000D9CF2091FE
:10019000B0002F7DF9CF24B52F7724BDD1CF24B562
:1001A0002F7DFBCF9E2BDACFFC01538D448D252F65
:1001B00030E0842F90E0821B930B541710F0CF9601
:1001C000089501970895FC01918D828D981761F033
:1001D000A28DAE0FBF2FB11D5D968C91928D9F5F4A
:1001E0009F73928F90E008958FEF9FEF0895FC0129
:1001F000918D828D981731F0828DE80FF11D858DDC
:1002000090E008958FEF9FEF0895FC01918D228D6E
:10021000892F90E0805C9F4F821B91098F739927F3
:100220000895FC01A48DA80FB92FB11DA35ABF4F8B
:100230002C91848D90E001968F739927848FA689E5
:10024000B7892C93A089B1898C91837080648C9339
:10025000938D848D981306C00288F389E02D8081E8
:100260008F7D80830895EF92FF920F931F93CF931A
:10027000DF93EC0181E0888F9B8D8C8D98131AC0E1
:10028000E889F989808185FF15C09FB7F894EE89C8
:10029000FF896083E889F989808183708064808325
:1002A0009FBF81E090E0DF91CF911F910F91FF9070
:1002B000EF900895F62E0B8D10E00F5F1F4F0F7318
:1002C0001127E02E8C8D8E110CC00FB607FCFACFD3
:1002D000E889F989808185FFF5CFCE010E9411015F
:1002E000F1CFEB8DEC0FFD2FF11DE35AFF4FF082A4
:1002F0009FB7F8940B8FEA89FB8980818062CFCF0A
:10030000CF93DF93EC01888D8823B9F0AA89BB894C
:10031000E889F9898C9185FD03C0808186FD0DC037
:100320000FB607FCF7CF8C9185FFF2CF808185FF58
:10033000EDCFCE010E941101E9CFDF91CF91089559
:1003400089E691E00E94050121E0892B09F420E073
:10035000822F089580E090E0892B29F00E94A0016F
:1003600081110C9400000895AF92BF92CF92DF925A
:10037000EF92FF920F931F93CF93DF936C017B015A
:100380008B01040F151FEB015E01AE18BF08C017EB
:10039000D10759F06991D601ED91FC910190F0815E
:1003A000E02DC6010995892B79F7C501DF91CF9121
:1003B0001F910F91FF90EF90DF90CF90BF90AF9083
:1003C0000895CF92DF92EF92FF926FB7F8948091E9
:1003D000650190916601A0916701B091680150910B
:1003E000640126B535B3432F417030FF04C041E0AE
:1003F0002F3F09F440E06FBF6C017D0137E0CC0C6A
:10040000DD1CEE1CFF1C3A95D1F7C50ED11CE11C7A
:10041000F11CC81AD90AEA0AFB0A880F991FAA1FF9
:10042000BB1FC81AD90AEA0AFB0A63E0CC0CDD1C20
:10043000EE1CFF1C6A95D1F730E0A9ECB5E00E94F4
:100440000005672F782F892F99276C0D7D1D8E1D34
:100450009F1D442321F067537A4F8F4F9F4FFF908A
:10046000EF90DF90CF9008958F929F92AF92BF92BE
:10047000CF92DF92EF92FF920E94E1014B015C016B
:1004800084E6C82ED12CE12CF12C0E94E1016819E0
:1004900079098A099B09683E734081059105A8F393
:1004A00021E0C21AD108E108F10888EE880E83E045
:1004B000981EA11CB11CC114D104E104F10429F758
:1004C000FF90EF90DF90CF90BF90AF909F908F9074
:1004D000089585ED8093BC008091BC0084FDFCCF25
:1004E00010925D01089520913901260F3327331FA3
:1004F00021323105ECF420915D01FC0190E080E0B7
:10050000243069F082E00895A09139012191AC0175
:10051000475E5E4FA40FB52FB11D2C930196861731
:1005200098F380913901680F6093390180E0089554
:1005300081E0089508958FEF9FEF08958FEF9FEF6B
:1005400008958091180190E0919581959109089501
:10055000CF93DF93CB01EA01642F0E947302CE0197
:10056000DF91CF910895CF93DF931F92CDB7DEB780
:10057000698361E0CE0101960E94730281E090E000
:100580000F90DF91CF91089590E080E008951F9241
:100590000F920FB60F9211242F933F934F935F93B7
:1005A0006F937F938F939F93AF93BF93EF93FF933B
:1005B00089E691E00E941101FF91EF91BF91AF9107
:1005C0009F918F917F916F915F914F913F912F916B
:1005D0000F900FBE0F901F9018951F920F920FB69D
:1005E0000F9211242F938F939F93EF93FF93E0919A
:1005F0007901F0917A018081E0917F01F091800191
:1006000082FD1BC09081809182018F5F8F7320914A
:100610008301821741F0E0918201F0E0E759FE4F3B
:10062000958F80938201FF91EF919F918F912F91F0
:100630000F900FBE0F901F9018958081F4CF1F92DE
:100640000F920FB60F9211244F935F936F937F9386
:100650008F939F934091650150916601609167016E
:100660007091680180916401909163019A3119F54C
:100670001092630190916301953008F1845C8D378D
:1006800000F18D574E5F5F4F6F4F7F4F8093640136
:100690004093650150936601609367017093680110
:1006A0009F918F917F916F915F914F910F900FBEAE
:1006B0000F901F9018959F5F90936301DBCF835C31
:1006C000DECF4F5F5F4F6F4F7F4FE0CF1F920F9294
:1006D0000FB60F9211242F933F934F935F936F9315
:1006E0007F938F939F93AF93BF93EF93FF938091EB
:1006F000B900887F803609F44AC0F0F5883209F4E1
:10070000A5C018F5803109F499C0B8F4882309F41C
:10071000EFC0883009F492C0FF91EF91BF91AF9183
:100720009F918F917F916F915F914F913F912F9109
:100730000F900FBE0F901F901895883109F486C056
:10074000803251F780935C0114C0803409F497C063
:1007500040F48033B9F38833F9F680935C0185EC7B
:10076000A8C0803509F481C0883509F490C0883468
:1007700099F60E946902D0CF883909F486C038F50D
:10078000883729F050F4883611F0803729F683E055
:1007900080935D0110925B0155C0883809F475C0E3
:1007A000803919F0803809F0B7CF80915B01803231
:1007B00008F06BC0E0915B0181E08E0F80935B01DC
:1007C0008091BB00F0E0E55CFE4F80833BC0803B46
:1007D00039F0D0F4803A09F471C0883A09F09CCF1E
:1007E00084E080935D0110923A0110923901F0E0AB
:1007F000E0E009958091390181110FC081E080937B
:1008000039011092190109C0803C09F4A8CF883C35
:1008100009F4A5CF883B09F07FCFE0913A0181E050
:100820008E0F80933A01F0E0E75EFE4F8081809367
:10083000BB0090913A018091390125C080916201FD
:100840008093BB0085EC8093BC0066CF90916101E2
:1008500080916001981728F5E091610181E08E0F89
:1008600080936101F0E08081EBCFE091610181E054
:100870008E0F809361018091BB00F0E080839091A6
:100880006101809160019817E8F285E8DCCFE09182
:10089000610181E08E0F809361018091BB00F0E0E7
:1008A000808380915F01811164CF81E080935E013C
:1008B00084EA8093BC0010925D012ECF85EC80937A
:1008C000BC0010925D0180915B01803230F4E091B8
:1008D0005B01F0E0E55CFE4F108260915B0170E02F
:1008E0008BE391E0F0E0E0E0099510925B0114CF1A
:1008F00010925C013ECFE9E6F1E01382128288EEAD
:1009000093E0A0E0B0E084839583A683B78384E07E
:1009100091E09183808385EC90E09587848784ECD7
:1009200090E09787868780EC90E0918B808B81ECBC
:1009300090E0938B828B82EC90E0958B848B86EC9D
:1009400090E0978B868B118E128E138E148E0895E5
:10095000789484B5836084BD85B5836085BD8091BE
:100960006E00816080936E0082E0809381008091B0
:1009700081008160809381008091800081608093FC
:1009800080008091B10084608093B1008091B000BC
:1009900081608093B00086E880937A001092C10055
:1009A000E3E9F0E02491ECE7F0E08491882399F00A
:1009B00090E0880F991FFC01E859FF4FA591B49171
:1009C000FC01EE58FF4F859194918FB7F894EC910C
:1009D000E22BEC938FBFC0E0D0E081E00E948C005E
:1009E0000E94340280E00E948C000E943402209712
:1009F000A1F30E94A001882381F30E940000EDCFA3
:100A0000A29FB001B39FC001A39F700D811D11244F
:100A1000911DB29F700D811D1124911D0895EE0F3F
:100A2000FF1F0590F491E02D0994F894FFCF00008A
:100A300000003301B401D40080010501E300F70098
:107E8000112424B614BE80E079D021FEEBC08EE030
:107E900075D0E0ECF0E0AFE7BFEF4899FECF9096E9
:107EA000489BFDCFB4831197F1F7B2E0B083B8E1FE
:107EB000B18352D0C82F823569F466D0E0E0FEE786
:107EC000A89583E093D091D0E058F109C8F787E7EF
:107ED0003CD0EFCF8D7FD9F44CD0D82FA0E0B1E0CB
:107EE0003BD08D93DA13FCCFA0E0B1E04DD0C111AF
:107EF0000CC0F2BDE1BD8D9180BDFA9AF99A319620
:107F0000F999FECFD150A9F7E2CF48D0E0CFC330E6
:107F100041F42FD0C82F38D0859117D0C150E1F748
:107F2000D6CFC13061F425D0C82F2ED0F2BDE1BD2F
:107F3000F89A80B50AD03196C150C1F7C8CFC13583
:107F400011F488E01BD020D0C2CF9091C00095FFE3
:107F5000FCCF8093C60008952D9A259A8091C00089
:107F600087FFFCCF84FD13C0A8958091C6002D9893
:107F70000895F2DFE82FF0DFF82FEECF98E190932D
:107F80006000809360000895E7DF803219F088E098
:107F9000F5DFFFCF80EAD9CFFB01DC01E07870E8A4
:107FA0007A0F9F01E0388EE7F80728F5309629F41C
:107FB0008FE38D938FEC8C93119790E045915D91B9
:107FC00045139160A713FACFF901A058B10990FFAA
:107FD00012C083E00BD081E00D901D9007D0329647
:107FE000A713FACFF90185E001D081E187BFE895B9
:107FF00017B610FCFDCF112408950319CDCFE7402B
:00000001FF
