:100000000C9463000C948B000C948B000C941003E4
:100010000C9410030C9410030C948B000C948B0024
:100020000C948B000C948B000C948B000C948B0024
:100030000C948B000C948B000C948B000C948B0014
:100040000C94C6020C948B000C9494020C946E02D7
:100050000C948B000C948B000C948B000C948B00F4
:100060000C948B000C948B0000000008000201002F
:100070000003040700000000000000000000000072
:1000800023002600290000000000240027002A0089
:1000900000000000250028002B00040404040404D0
:1000A0000404020202020202030303030303010227
:1000B00004081020408001020408102001020408F6
:1000C0001020D4031E0611241FBECFEFD8E0DEBFE0
:1000D000CDBF11E0A0E0B1E0EAE9FCE002C005908C
:1000E0000D92A834B107D9F722E0A8E4B1E001C02D
:1000F0001D92A135B207E1F710E0C2E6D0E004C0DE
:100100002197FE010E943A06C136D107C9F70E9425
:10011000BB040C9440060C940000AF92BF92CF92A7
:10012000DF92EF92FF920F931F93CF93DF936C01B7
:100130007B018B01040F151FEB015E01AE18BF0898
:10014000C017D10759F06991D601ED91FC9101904A
:10015000F081E02DC6010995892B79F7C501DF9162
:10016000CF911F910F91FF90EF90DF90CF90BF90B4
:10017000AF900895FC01538D448D252F30E0842FDE
:1001800090E0821B930B541710F0CF9608950197BF
:100190000895FC01918D828D981761F0A28DAE0FAC
:1001A000BF2FB11D5D968C91928D9F5F9F73928F33
:1001B00090E008958FEF9FEF0895FC01918D828D5F
:1001C000981731F0828DE80FF11D858D90E008952C
:1001D0008FEF9FEF0895FC01918D228D892F90E084
:1001E000805C9F4F821B91098F739927089585E941
:1001F00091E00E94EB0021E0892B09F420E0822F9E
:10020000089580E090E0892B29F00E94F700811189
:100210000C9400000895FC01A48DA80FB92FB11D06
:10022000A35ABF4F2C91848D90E001968F7399272C
:10023000848FA689B7892C93A089B1898C9183700A
:1002400080648C93938D848D981306C00288F38903
:10025000E02D80818F7D80830895EF92FF920F9330
:100260001F93CF93DF93EC0181E0888F9B8D8C8D62
:1002700098131AC0E889F989808185FF15C09FB756
:10028000F894EE89FF896083E889F9898081837019
:10029000806480839FBF81E090E0DF91CF911F91C8
:1002A0000F91FF90EF900895F62E0B8D10E00F5FE9
:1002B0001F4F0F731127E02E8C8D8E110CC00FB6BF
:1002C00007FCFACFE889F989808185FFF5CFCE0157
:1002D0000E940B01F1CFEB8DEC0FFD2FF11DE35AC6
:1002E000FF4FF0829FB7F8940B8FEA89FB898081DA
:1002F0008062CFCFCF93DF93EC01888D8823B9F054
:10030000AA89BB89E889F9898C9185FD03C0808120
:1003100086FD0DC00FB607FCF7CF8C9185FFF2CF9D
:10032000808185FFEDCFCE010E940B01E9CFDF91E7
:10033000CF9108953FB7F89480918D0190918E01EF
:10034000A0918F01B091900126B5A89B05C02F3FC9
:1003500019F00196A11DB11D3FBFBA2FA92F982FEB
:100360008827BC01CD01620F711D811D911D42E0E6
:10037000660F771F881F991F4A95D1F7089520911E
:100380009301309194012817390771F490919101EC
:1003900080919201981741F0E0919101F0E0E85BC3
:1003A000FE4F808190E008958FEF9FEF08950895AC
:1003B000EF92FF920F931F93CF93DF93DC015C9634
:1003C000ED90FC905D97E114F10479F481E090E008
:1003D00013969C938E93129790E080E0DF91CF91DB
:1003E0001F910F91FF90EF9008955196ED91FC9120
:1003F000529750968C915097982F90950FB75E9684
:100400002C915E97122F127021FD6095F894208137
:10041000112319F1282B2083E7012197F1F728E018
:10042000462F50E0308160FF1AC0382B3083E7013F
:100430002197F1F7BA0175956795215089F7112336
:1004400081F08081892380830FBF5C968D919C9180
:100450000197F1F781E090E0C1CF2923DCCF392368
:10046000E5CF9081892BEFCF2091930130919401BA
:100470002817390761F4809192012091910190E051
:10048000805C9F4F821B91098F739927089590E09C
:1004900080E0089520919301309194012817390745
:1004A000B9F49091910180919201981789F0E091AF
:1004B0009101F0E0E85BFE4F80812091910130E0F6
:1004C0002F5F3F4F2F7333272093910190E00895C2
:1004D0008FEF9FEF089590E080E008951F920F92B4
:1004E0000FB60F9211242F933F934F935F936F9307
:1004F0007F938F939F93AF93BF93EF93FF9385E980
:1005000091E00E940B01FF91EF91BF91AF919F91FC
:100510008F917F916F915F914F913F912F910F90AC
:100520000FBE0F901F9018951F920F920FB60F924B
:1005300011242F938F939F93EF93FF93E091A50145
:10054000F091A6018081E091AB01F091AC0182FDB8
:100550001BC090818091AE018F5F8F732091AF019E
:10056000821741F0E091AE01F0E0EB56FE4F958F1F
:100570008093AE01FF91EF919F918F912F910F90FA
:100580000FBE0F901F9018958081F4CF1F920F928D
:100590000FB60F9211242F933F938F939F93AF9396
:1005A000BF938091890190918A01A0918B01B091B4
:1005B0008C013091880123E0230F2D3758F50196E7
:1005C000A11DB11D209388018093890190938A0118
:1005D000A0938B01B0938C0180918D0190918E013D
:1005E000A0918F01B09190010196A11DB11D809342
:1005F0008D0190938E01A0938F01B0939001BF91D4
:10060000AF919F918F913F912F910F900FBE0F90BF
:100610001F90189526E8230F0296A11DB11DD2CF79
:100620001F920F920FB60F9211242F933F934F9367
:100630005F936F937F938F939F93AF93BF93EF934A
:10064000FF93E0919301F0919401309749F0A685D2
:10065000B7858585968D91FF14C09C918923A1F45F
:10066000FF91EF91BF91AF919F918F917F916F918A
:100670005F914F913F912F910F900FBE0F901F9060
:1006800018959C91892361F7A389B4899C918589E8
:10069000809589238C93868997890197F1F7608DDE
:1006A000718DA685B785558538E020E0CB0101978F
:1006B000F1F7822F90E095958795282F4C9145234F
:1006C00009F02068315091F7868D81FD2095809149
:1006D000920190E001968F7399273091910138171C
:1006E00099F0A0919201B0E0A85BBE4F2C9380934B
:1006F0009201828D938D0197F1F7A389B4898C9132
:100700009589892B8C93ACCF868D8160868FF1CFB4
:1007100090E0FC01E859FF4F2491FC01E255FF4FA6
:100720003491FC01E656FF4FE491EE23C9F02223F9
:1007300039F0233001F1A8F4213019F1223029F1E8
:10074000F0E0EE0FFF1FE057FF4FA591B4918FB778
:10075000F894EC91611126C030953E233C938FBFF5
:1007600008952730A9F02830C9F0243049F7809146
:1007700080008F7D03C0809180008F778093800000
:10078000DFCF84B58F7784BDDBCF84B58F7DFBCF82
:100790008091B0008F778093B000D2CF8091B0006D
:1007A0008F7DF9CF3E2BDACF0F931F93CF93DF933B
:1007B000109298011092970188EE93E0A0E0B0E0CB
:1007C0008093990190939A01A0939B01B0939C010F
:1007D00024E031E0309396012093950125EC30E040
:1007E0003093A2012093A10124EC30E03093A401C6
:1007F0002093A30120EC30E03093A6012093A501C3
:1008000021EC30E03093A8012093A70122EC30E0E6
:100810003093AA012093A90126EC30E03093AC017B
:100820002093AB011092AE011092AF011092B00173
:100830001092B10110923502109234028093360268
:1008400090933702A0933802B093390286E191E089
:100850009093330280933202109249021092480220
:1008600010924B0210924A0210924D0210924C02CA
:1008700010924F0210924E02609150026E7F6D7F77
:10088000609350026695617081E068270E9488033A
:100890004FEA50E0FA0164918BE990E0FC01249169
:1008A000222399F030E0220F331FF901EA57FF4F5E
:1008B000A591B491F901E057FF4F259134912FB7DD
:1008C000F8943C91632B6C932FBFFA0144914093B1
:1008D0004202FC018491E82FF0E0EE0FFF1FE05789
:1008E000FF4F8591949190934402809343020EEAC6
:1008F00010E0F8012491CAE9D0E0FE018491882338
:10090000C9F090E0880F991FFC01EA57FF4FA591AD
:10091000B491FC01E057FF4F459154913FB7F894D3
:100920009C91822F809598239C93FA019081892332
:1009300080833FBF8091500281FD04C061E080E070
:100940000E94880310923E02F801049100933F0236
:10095000FE01C491EC2FF0E0EE0FFF1FE458FF4FB3
:10096000859194919093410280934002DF91CF91C1
:100970001F910F910895789484B5826084BD84B5E9
:10098000816084BD85B5826085BD85B5816085BD8A
:1009900080916E00816080936E0010928100809142
:1009A00081008260809381008091810081608093CA
:1009B0008100809180008160809380008091B100EF
:1009C00084608093B1008091B00081608093B0001A
:1009D00080917A00846080937A0080917A008260AE
:1009E00080937A0080917A00816080937A00809170
:1009F0007A00806880937A001092C100E091A5018E
:100A0000F091A60182E08083E091A101F091A20122
:100A10001082E091A301F091A4018FEC80831092E9
:100A2000AD01E091A901F091AA0186E08083E091F7
:100A3000A701F091A801808180618083E091A701E6
:100A4000F091A801808188608083E091A701F091F6
:100A5000A801808180688083E091A701F091A801BE
:100A600080818F7D808310924D0210924C021092F3
:100A70004B0210924A0210924902109248028DE9EC
:100A800091E090934F0280934E0290913E029631F6
:100A900008F047C02DEB30E0309349022093480224
:100AA0002BE931E030934B0220934A022CE231E0F3
:100AB00030934D0220934C022091680084E09830DE
:100AC00048F031E09E3008F430E081E001C0880F4A
:100AD0003A95EAF7822B809368002DE630E0983053
:100AE00050F02BE630E09E3030F02CE630E09631CE
:100AF00010F030E020E03093460220934502292F89
:100B000030E0983008F08DC081E001C0880F9A95E0
:100B1000EAF78093470280914E0290914F0201972D
:100B2000F1F780914C0290914D02892B49F1E091AF
:100B30009301F091940122E0E233F20709F130973A
:100B400039F0A389B4899C918589809589238C93F8
:100B5000809150028E7F80935002109292011092E9
:100B6000910182E392E09093940180939301E0914C
:100B70004502F0914602808190914702892B808343
:100B8000C0E0D0E082E392E00E943402892B49F079
:100B900082E392E00E944A02682F85E991E00E9478
:100BA0002D0140E250E064E271E082E392E00E94B5
:100BB0008D0042E050E065E471E082E392E00E9443
:100BC0008D000E949A014B015C0188EEC82E83E0E3
:100BD000D82EE12CF12C0E949A01681979098A0912
:100BE0009B09683E734081059105A8F381E0C81A0E
:100BF000D108E108F10828EE820E23E0921EA11C24
:100C0000B11CC114D104E104F10429F7209709F4BF
:100C1000B9CF0E94F700882309F4B4CF0E940000E6
:100C2000B1CF9E3040F42850310981E001C0880FD7
:100C30002A95EAF76ECF2E503109F7CF86E191E081
:100C400090933302809332028091930190919401AA
:100C50008253924071F4E0914502F09146029081F6
:100C6000809147028095892380831092940110928D
:100C700093010895EE0FFF1F0590F491E02D099464
:100C800010E0C2E6D0E004C0FE010E943A062196C0
:0A0C9000C336D107C9F7F894FFCF6F
:100C9A00000000002D018D00BA007A01EB00C900A6
:100CAA00DD0000000000D8018D006B02D70134027C
:100CBA004A02BF0148656C6C6F2C204465627567F7
:100CCA00206F6E20536F6674776172652053657268
:080CDA0069616C21000D0A00A4
:107E0000112484B714BE81FFFDD085E080938100EA
:107E100082E08093C00088E18093C10096E0909357
:107E2000C20090E19093C400809360008EE0809344
:107E30006000259A86E020E33CEF91E030938500D6
:107E40002093840096BBB09BFECF1D9AA8958150CD
:107E5000A9F7C0E0D0E008E138E0F32EEE24E39487
:107E600045E0B42E51E1A52E13E0A7D0813491F462
:107E7000A4D0D82EAED082E8D81203C084E096D029
:107E800092C0E1E8DE1203C084E090D08CC083E0B1
:107E90008DD089C0823419F484E1A7D084C08534A0
:107EA00019F485E0A2D07FC0853549F486D0C82F6B
:107EB00084D0D0E0D82BCC0FDD1F8BD074C086359A
:107EC00029F484E092D080E071D06DC0843609F04E
:107ED0003FC073D072D0982E70D0C115F0E7DF0785
:107EE00038F4FE0117BFE895C12CDD24D39403C0FC
:107EF000C12CDD24D39461D0F60181936F019E12D1
:107F0000FACFC115F0E7DF0718F0FE0117BFE895BB
:107F100060D007B600FCFDCFFE01A0E0B1E08C917F
:107F200011962C91119790E0922B0C01E7BEE895E9
:107F3000112432961296A03881E0B80781F7FE012D
:107F4000B7BEE89507B600FCFDCFA7BEE8952BC0ED
:107F50008437B1F432D031D0982E2FD03AD0892C3A
:107F6000FE016F018FEFC81AD80A84911FD08A943E
:107F7000F6018110F6CF21969A94C90DD11D13C038
:107F8000853741F426D08EE111D085E90FD08FE0FE
:107F90000DD009C0813531F400936000F09260008B
:107FA00018D001C016D080E101D05FCF9091C00001
:107FB00095FFFCCF8093C60008958091C00087FF95
:107FC000FCCF8091C00084FD01C0A8958091C600BF
:107FD0000895F3DF803239F088E18093600088E013
:107FE00080936000FFCF84E1E1CFCF93C82FE5DF1E
:107FF000C150E9F7CF91EDCFE0E6F0E098E1908352
:1080000080830895E0E6F0E088E180831082EE2727
:04801000FF270994A9
:027FFE00040479
:0400000300007E007B
:00000001FF
