:020000040000FA
:100000000C9462000C948A000C948A000C948A0070
:100010000C948A000C948A000C948A000C948A0038
:100020000C948A000C948A000C948A000C948A0028
:100030000C948A000C948A000C948A000C948A0018
:100040000C94E6030C948A000C94B4030C948E0375
:100050000C948A000C948A000C948A000C948A00F8
:100060000C942D040C948A00000000090003020087
:10007000000405080000000000000000000000006F
:10008000000000250028002B0000000000240027AD
:10009000002A00040404040404040402020202020C
:1000A00002030303030303020203010204081020F6
:1000B0004080010204081020010204081020408042
:1000C0004000580511241FBECFEFD8E0DEBFCDBFE2
:1000D00011E0A0E0B1E0E8EDFDE002C005900D9276
:1000E000A834B107D9F722E0A8E4B1E001C01D921D
:1000F000A339B207E1F710E0C2E6D0E004C02197CF
:10010000FE010E94E406C136D107C9F70E9491059D
:100110000C94EA060C940000282F9091E90181E0EC
:10012000913208F042C08091C5018111FCCF8091CD
:10013000E80132E03093C5012093C4012FEF2093F2
:10014000C30128EC31E03093C2012093C101109229
:10015000C0019093BF011092BE019091BE01880F23
:10016000892B8093BE018091BD01813029F51092C9
:10017000BD018091BE018093BB008091BC0083FDD6
:10018000F8CF85EC8093BC008091C5018230E1F30B
:100190008091C3018F3F91F08091C301803281F043
:1001A0008091C301803371F084E01092C7011092F6
:1001B000E9011092C601089585EEE4CF80E0F5CF05
:1001C00082E0F3CF83E0F1CFFC01538D448D252FE6
:1001D00030E0842F90E0821B930B541710F0CF96E1
:1001E000089501970895FC01918D828D981761F013
:1001F000A28DAE0FBF2FB11D5D968C91928D9F5F2A
:100200009F73928F90E008958FEF9FEF0895FC0108
:10021000918D828D981731F0828DE80FF11D858DBB
:1002200090E008958FEF9FEF0895FC01918D228D4E
:10023000892F90E0805C9F4F821B91098F739927D3
:100240000895FC01A48DA80FB92FB11DA35ABF4F6B
:100250002C91848D90E001968F739927848FA689C5
:10026000B7892C93A089B1898C91837080648C9319
:10027000938D848D981306C00288F389E02D8081C8
:100280008F7D80830895EF92FF920F931F93CF93FA
:10029000DF93EC0181E0888F9B8D8C8D98131AC0C1
:1002A000E889F989808185FF15C09FB7F894EE89A8
:1002B000FF896083E889F989808183708064808305
:1002C0009FBF81E090E0DF91CF911F910F91FF9050
:1002D000EF900895F62E0B8D10E00F5F1F4F0F73F8
:1002E0001127E02E8C8D8E110CC00FB607FCFACFB3
:1002F000E889F989808185FFF5CFCE010E9421012F
:10030000F1CFEB8DEC0FFD2FF11DE35AFF4FF08283
:100310009FB7F8940B8FEA89FB8980818062CFCFE9
:10032000CF93DF93EC01888D8823B9F0AA89BB892C
:10033000E889F9898C9185FD03C0808186FD0DC017
:100340000FB607FCF7CF8C9185FFF2CF808185FF38
:10035000EDCFCE010E942101E9CFDF91CF91089529
:100360008AEE91E00E94150121E0892B09F420E03A
:10037000822F089580E090E0892B29F00E94B0013F
:1003800081110C940000089580919B0190919C0133
:10039000891B990B089508950895AF92BF92CF924B
:1003A000DF92EF92FF920F931F93CF93DF936C0135
:1003B0007B018B01040F151FEB015E01AE18BF0816
:1003C000C017D10759F06991D601ED91FC910190C8
:1003D000F081E02DC6010995892B79F7C501DF91E0
:1003E000CF911F910F91FF90EF90DF90CF90BF9032
:1003F000AF90089590E0FC01E859FF4F2491FC0173
:10040000E655FF4F3491FC01ED56FF4FE491EE238A
:10041000C9F0222339F0243001F1A8F4223069F127
:10042000233079F1F0E0EE0FFF1FE158FF4FA59167
:10043000B4918FB7F894EC91611126C030953E23AA
:100440003C938FBF0895283071F0293091F025300A
:1004500049F7809180008F7D03C0809180008F7765
:1004600080938000DFCF8091B0008F778093B000C1
:10047000D9CF8091B0008F7DF9CF84B58F7784BDBF
:10048000D1CF84B58F7DFBCF3E2BDACFCF92DF92D9
:10049000EF92FF926FB7F89480919301909194013D
:1004A000A0919501B09196015091920126B535B376
:1004B000432F417030FF04C041E02F3F09F440E07A
:1004C0006FBF6C017D0137E0CC0CDD1CEE1CFF1C06
:1004D0003A95D1F7C50ED11CE11CF11CC81AD90AF6
:1004E000EA0AFB0A880F991FAA1FBB1FC81AD90A5C
:1004F000EA0AFB0A63E0CC0CDD1CEE1CFF1C6A95CB
:10050000D1F730E0A9ECB5E00E94D506672F782F2F
:10051000892F99276C0D7D1D8E1D9F1D442321F071
:1005200067537A4F8F4F9F4FFF90EF90DF90CF90A0
:1005300008958F929F92AF92BF92CF92DF92EF92E7
:10054000FF920E9446024B015C0184E6C82ED12C2A
:10055000E12CF12C0E944602681979098A099B094D
:10056000683E734081059105A8F321E0C21AD108C5
:10057000E108F10888EE880E83E0981EA11CB11CEA
:10058000C114D104E104F10429F7FF90EF90DF904A
:10059000CF90BF90AF909F908F90089585ED8093FE
:1005A000BC008091BC0084FDFCCF1092C501089571
:1005B00020916E01260F3327331F21323105ECF4D1
:1005C0002091C501FC0190E080E0243069F082E0D8
:1005D0000895A0916E012191AC01425B5E4FA40F82
:1005E000B52FB11D2C930196861798F380916E015B
:1005F000680F60936E0180E0089581E0089508958A
:10060000E0919C0180919B01E81730F4F0E0E35603
:10061000FE4F808190E008958FEF9FEF08959091B5
:100620009C0180919B012FEF3FEF981748F4E92F31
:10063000F0E0E356FE4F208130E09F5F90939C01F5
:10064000C9010895CF92DF92EF92FF920F931F930B
:10065000CF93DF937C01CB018A012091C601222335
:1006600089F0EB016B01C40ED51ECC15DD0569F0D8
:100670006991D701ED91FC910190F081E02DC701C6
:100680000995F3CF642F0E94D802C801DF91CF9162
:100690001F910F91FF90EF90DF90CF900895CF932F
:1006A000DF931F92CDB7DEB769832091C601222365
:1006B000F9F02091E901203258F021E030E0FC010E
:1006C0003383228390E080E00F90DF91CF910895F3
:1006D0008091C701E82FF0E0E853FE4F99819083A5
:1006E0008F5F8093C7018093E90181E090E0ECCFB8
:1006F00061E0CE0101960E94D802F7CF90E080E041
:100700000895FC0101900020E9F73197AF01481BE3
:10071000590BBC018AEE91E00C94CD011F920F920F
:100720000FB60F9211242F933F934F935F936F93C4
:100730007F938F939F93AF93BF93EF93FF938AEE33
:1007400091E00E942101FF91EF91BF91AF919F91A4
:100750008F917F916F915F914F913F912F910F906A
:100760000FBE0F901F9018951F920F920FB60F9209
:1007700011242F938F939F93EF93FF93E091FA01AE
:10078000F091FB018081E0910002F091010282FD75
:100790001BC09081809103028F5F8F7320910402B0
:1007A000821741F0E0910302F0E0E651FE4F958F91
:1007B00080930302FF91EF919F918F912F910F9062
:1007C0000FBE0F901F9018958081F4CF1F920F924B
:1007D0000FB60F9211244F935F936F937F938F9374
:1007E0009F93409193015091940160919501709174
:1007F000960180919201909191019A3119F5109290
:10080000910190919101953008F1845C8D3700F150
:100810008D574E5F5F4F6F4F7F4F80939201409394
:1008200093015093940160939501709396019F9169
:100830008F917F916F915F914F910F900FBE0F90AD
:100840001F9018959F5F90939101DBCF835CDECF63
:100850004F5F5F4F6F4F7F4FE0CF1F920F920FB6EA
:100860000F9211242F933F934F935F936F937F9336
:100870008F939F93AF93BF93EF93FF938091B900B2
:10088000887F803609F44AC0F0F5883209F4A7C0A1
:1008900018F5803109F49BC0B8F4882309F405C128
:1008A000883009F494C0FF91EF91BF91AF919F916F
:1008B0008F917F916F915F914F913F912F910F9009
:1008C0000FBE0F901F901895883109F488C08032B0
:1008D00051F78093C30114C0803409F4A5C040F4DB
:1008E0008033B9F38833F9F68093C30185ECBCC03B
:1008F000803509F489C0883509F49EC0883499F69A
:100900000E94CE02D0CF883909F494C038F58837D8
:1009100029F050F4883611F0803729F683E080936F
:10092000C5011092900157C0883809F483C08039FE
:1009300019F0803809F0B7CF80919001803208F02B
:1009400079C0E091900181E08E0F809390018091B9
:10095000BB00F0E0E059FE4F80833DC0803B39F0A2
:10096000E0F4803A09F485C0883A09F09CCF84E02D
:100970008093C50110926F0110926E01E091990170
:10098000F0919A01099580916E0181110FC081E06B
:1009900080936E0110924E0109C0803C09F4A6CFED
:1009A000883C09F4A3CF883B09F07DCFE0916F012B
:1009B00081E08E0F80936F01F0E0E25BFE4F80815B
:1009C0008093BB0090916F0180916E0131C0809146
:1009D000BE018093BB0085EC8093BC0064CF9091F6
:1009E000C0018091BF019817B8F58091C101909125
:1009F000C201E091C00121E02E0F2093C001E80F59
:100A0000F92FF11D8081E5CF2091C1013091C20104
:100A1000E091C00181E08E0F8093C0018091BB0006
:100A2000E20FF32FF11D80839091C0018091BF01EF
:100A3000981788F285E8D0CF2091C1013091C2018A
:100A4000E091C00181E08E0F8093C0018091BB00D6
:100A5000E20FF32FF11D80838091C401811150CFEB
:100A600081E08093BD0184EA8093BC001092C501AF
:100A70001ACF85EC8093BC001092C5018091900143
:100A8000803230F4E0919001F0E0E059FE4F1082A6
:100A90006091900170E0E0919701F091980180E7FA
:100AA00091E0099510929001FECE1092C30128CFDB
:100AB000EAEEF1E01382128288EE93E0A0E0B0E06B
:100AC00084839583A683B78324E031E03183208338
:100AD00025EC30E03587248724EC30E03787268703
:100AE00020EC30E0318B208B21EC30E0338B228BFB
:100AF00022EC30E0358B248B26EC30E0378B268BD4
:100B0000118E128E138E148EE7E8F2E01382128299
:100B100084839583A683B78386E191E09183808364
:100B20000895CF93DF93CDB7DEB7A1970FB6F894B2
:100B3000DEBF0FBECDBF789484B5836084BD85B51C
:100B4000836085BD80916E00816080936E0082E03D
:100B500080938100809181008160809381008091E9
:100B600080008160809380008091B10084608093D8
:100B7000B1008091B00081608093B00086E88093DE
:100B80007A001092C100EAEAF0E02491E3E9F0E093
:100B90008491882399F090E0880F991FFC01E75712
:100BA000FF4FA591B491FC01E158FF4F85919491BD
:100BB0008FB7F894EC91E22BEC938FBF10929C01CD
:100BC00010929B011092C7011092E9011092C50189
:100BD00011E01093C4011092BD0161E082E10E9416
:100BE000FA0161E083E10E94FA018091B9008E7FF1
:100BF0008093B9008091B9008D7F8093B9008FE216
:100C00008093B80085E48093BC008BEC91E09093D6
:100C10009A01809399018CEC91E0909398018093D4
:100C200097011093C60180E78093E8011092C701F5
:100C30001092E90161E087E892E00E944F0381E0B1
:100C40000E948C0019A280E388A3CE0180960E94A6
:100C500081031093C60187ED8093E8011092C701CC
:100C60001092E90166E187E892E00E944F0380E07C
:100C70000E948C008091C5018111FCCF81E080939E
:100C8000C5018093C4019FEF9093C3012DE931E02A
:100C90003093C2012093C1011092C0011092BF0194
:100CA0008093BE018091BE018E6A8093BE018091C7
:100CB000BD018130D1F51092BD018091BE018093BC
:100CC000BB008091BC0083FDF8CF85EC8093BC0015
:100CD0008091C5018130E1F38091C001811127C06D
:100CE0008091C00110929C0180939B01882309F19F
:100CF00087E892E00E940F038F7061E021F50E9467
:100D0000FA010E94990260E080E00E94FA010E94CC
:100D1000990200E010E001151105E9F30E94B0010D
:100D20008823C9F30E940000F6CF85EECFCF81E083
:100D3000D9CF84E291E00E94810384E491E00E9493
:100D400081038FEFD9CF80E00E94FA010E949902BF
:100D500060E080E00E94FA010E94990261E080E078
:100D60000E94FA010E94990260E080E00E94FA016C
:100D70000E94990261E080E00E94FA010E949902BB
:100D800060E080E00E94FA010E94990261E080E048
:100D90000E94FA010E94990260E080E00E94FA013C
:100DA0000E94990261E080E0AACFA29FB001B39FA8
:100DB000C001A39F700D811D1124911DB29F700D64
:100DC000811D1124911D0895EE0FFF1F0590F491D0
:100DD000E02D0994F894FFCF000000004301CD01FD
:100DE000E40090011501F3000701000000004F032B
:100DF00022037E03FF02C4010F0300034572726FDA
:100E0000723A204661696C656420746F2072656176
:100E1000642072656769737465722E000D0A0000A4
:107E8000112424B614BE80E079D021FEEBC08EE030
:107E900075D0E0ECF0E0AFE7BFEF4899FECF9096E9
:107EA000489BFDCFB4831197F1F7B2E0B083B8E1FE
:107EB000B18352D0C82F823569F466D0E0E0FEE786
:107EC000A89583E093D091D0E058F109C8F787E7EF
:107ED0003CD0EFCF8D7FD9F44CD0D82FA0E0B1E0CB
:107EE0003BD08D93DA13FCCFA0E0B1E04DD0C111AF
:107EF0000CC0F2BDE1BD8D9180BDFA9AF99A319620
:107F0000F999FECFD150A9F7E2CF48D0E0CFC330E6
:107F100041F42FD0C82F38D0859117D0C150E1F748
:107F2000D6CFC13061F425D0C82F2ED0F2BDE1BD2F
:107F3000F89A80B50AD03196C150C1F7C8CFC13583
:107F400011F488E01BD020D0C2CF9091C00095FFE3
:107F5000FCCF8093C60008952D9A259A8091C00089
:107F600087FFFCCF84FD13C0A8958091C6002D9893
:107F70000895F2DFE82FF0DFF82FEECF98E190932D
:107F80006000809360000895E7DF803219F088E098
:107F9000F5DFFFCF80EAD9CFFB01DC01E07870E8A4
:107FA0007A0F9F01E0388EE7F80728F5309629F41C
:107FB0008FE38D938FEC8C93119790E045915D91B9
:107FC00045139160A713FACFF901A058B10990FFAA
:107FD00012C083E00BD081E00D901D9007D0329647
:107FE000A713FACFF90185E001D081E187BFE895B9
:107FF00017B610FCFDCF112408950319CDCFE7402B
:00000001FF
