:100000000C9461000C9473000C9473000C947300B6
:100010000C9473000C9473000C9473000C94730094
:100020000C9473000C9473000C9473000C94730084
:100030000C9473000C9473000C9473000C94730074
:100040000C9445010C9473000C9473000C94730091
:100050000C9473000C9473000C9473000C94730054
:100060000C9473000C94730000000000240027001F
:100070002A0000000000250028002B0004040404CE
:100080000404040402020202020203030303030342
:10009000020203010204081020408001020408103B
:1000A00020010204081020408040000000090003E5
:1000B000020000040508000000000000000000002D
:1000C000000011241FBECFEFD8E0DEBFCDBF21E07E
:1000D000A0E0B1E001C01D92A630B207E1F70E9496
:1000E0008C010C94EF010C940000EAEAF0E02491FA
:1000F000E3E9F0E09491ECE7F0E0E491EE23C9F05D
:10010000222339F0243001F1A8F4223069F12330A0
:1001100079F1F0E0EE0FFF1FEE58FF4FA591B4917B
:100120002FB7F894EC91811126C090959E239C9353
:100130002FBF0895283071F0293091F0253049F70C
:10014000209180002F7D03C0209180002F77209385
:100150008000DFCF2091B0002F772093B000D9CF5F
:100160002091B0002F7DF9CF24B52F7724BDD1CFBA
:1001700024B52F7DFBCF9E2BDACFCF92DF92EF926B
:10018000FF926FB7F8948091020190910301A091C2
:100190000401B09105015091010126B535B3432FFB
:1001A000417030FF04C041E02F3F09F440E06FBFD1
:1001B0006C017D0137E0CC0CDD1CEE1CFF1C3A9578
:1001C000D1F7C50ED11CE11CF11CC81AD90AEA0AE4
:1001D000FB0A880F991FAA1FBB1FC81AD90AEA0A6F
:1001E000FB0A63E0CC0CDD1CEE1CFF1C6A95D1F70A
:1001F00030E0A9ECB5E00E94E001672F782F892F4D
:1002000099276C0D7D1D8E1D9F1D442321F0675382
:100210007A4F8F4F9F4FFF90EF90DF90CF900895D0
:100220008F929F92AF92BF92CF92DF92EF92FF9206
:100230000E94BD004B015C0184E6C82ED12CE12C4C
:10024000F12C0E94BD00681979098A099B09683E52
:10025000734081059105A8F321E0C21AD108E10895
:10026000F10888EE880E83E0981EA11CB11CC11411
:10027000D104E104F10429F7FF90EF90DF90CF90D3
:10028000BF90AF909F908F9008951F920F920FB6DE
:100290000F9211244F935F936F937F938F939F934C
:1002A0004091020150910301609104017091050198
:1002B00080910101909100019A3119F5109200018D
:1002C00090910001953008F1845C8D3700F18D57D5
:1002D0004E5F5F4F6F4F7F4F80930101409302014C
:1002E0005093030160930401709305019F918F91D6
:1002F0007F916F915F914F910F900FBE0F901F9064
:1003000018959F5F90930001DBCF835CDECF4F5F3A
:100310005F4F6F4F7F4FE0CF789484B5836084BD8B
:1003200085B5836085BD80916E00816080936E008D
:1003300082E08093810080918100816080938100C0
:10034000809180008160809380008091B100846002
:100350008093B1008091B00081608093B00086E806
:1003600080937A001092C100E3E9F0E02491ECE779
:10037000F0E08491882399F090E0880F991FFC01A8
:10038000E859FF4FA591B491FC01EE58FF4F8591BC
:1003900094918FB7F894EC91E22BEC938FBFC0E06F
:1003A000D0E081E00E9475000E94100180E00E9470
:1003B00075000E9410012097A1F30E940000F1CF68
:1003C000A29FB001B39FC001A39F700D811D112496
:1003D000911DB29F700D811D1124911D0895F894F7
:0203E000FFCF4D
:00000001FF
